{
  "_format": "hh-sol-artifact-1",
  "contractName": "Cert",
  "sourceName": "contracts/Cert.sol",
  "abi": [
    {
      "anonymous": false,
      "inputs": [
        {
          "indexed": true,
          "internalType": "string",
          "name": "course",
          "type": "string"
        },
        {
          "indexed": false,
          "internalType": "uint256",
          "name": "id",
          "type": "uint256"
        },
        {
          "indexed": false,
          "internalType": "string",
          "name": "grade",
          "type": "string"
        }
      ],
      "name": "Issued",
      "type": "event"
    },
    {
      "inputs": [
        {
          "internalType": "uint256",
          "name": "",
          "type": "uint256"
        }
      ],
      "name": "Certificates",
      "outputs": [
        {
          "internalType": "string",
          "name": "name",
          "type": "string"
        },
        {
          "internalType": "string",
          "name": "course",
          "type": "string"
        },
        {
          "internalType": "string",
          "name": "grade",
          "type": "string"
        },
        {
          "internalType": "string",
          "name": "date",
          "type": "string"
        }
      ],
      "stateMutability": "view",
      "type": "function"
    },
    {
      "inputs": [
        {
          "internalType": "uint256",
          "name": "_id",
          "type": "uint256"
        },
        {
          "internalType": "string",
          "name": "_name",
          "type": "string"
        },
        {
          "internalType": "string",
          "name": "_course",
          "type": "string"
        },
        {
          "internalType": "string",
          "name": "_grade",
          "type": "string"
        },
        {
          "internalType": "string",
          "name": "_date",
          "type": "string"
        }
      ],
      "name": "issue",
      "outputs": [],
      "stateMutability": "nonpayable",
      "type": "function"
    }
  ],
  "bytecode": "0x608060405234801561001057600080fd5b50610aec806100206000396000f3fe608060405234801561001057600080fd5b50600436106100365760003560e01c80639622c8361461003b578063d1e7be261461006e575b600080fd5b61005560048036038101906100509190610408565b61008a565b60405161006594939291906104c5565b60405180910390f35b6100886004803603810190610083919061065b565b6102da565b005b60006020528060005260406000206000915090508060000180546100ad90610775565b80601f01602080910402602001604051908101604052809291908181526020018280546100d990610775565b80156101265780601f106100fb57610100808354040283529160200191610126565b820191906000526020600020905b81548152906001019060200180831161010957829003601f168201915b50505050509080600101805461013b90610775565b80601f016020809104026020016040519081016040528092919081815260200182805461016790610775565b80156101b45780601f10610189576101008083540402835291602001916101b4565b820191906000526020600020905b81548152906001019060200180831161019757829003601f168201915b5050505050908060020180546101c990610775565b80601f01602080910402602001604051908101604052809291908181526020018280546101f590610775565b80156102425780601f1061021757610100808354040283529160200191610242565b820191906000526020600020905b81548152906001019060200180831161022557829003601f168201915b50505050509080600301805461025790610775565b80601f016020809104026020016040519081016040528092919081815260200182805461028390610775565b80156102d05780601f106102a5576101008083540402835291602001916102d0565b820191906000526020600020905b8154815290600101906020018083116102b357829003601f168201915b5050505050905084565b60405180608001604052808581526020018481526020018381526020018281525060008087815260200190815260200160002060008201518160000190816103229190610952565b5060208201518160010190816103389190610952565b50604082015181600201908161034e9190610952565b5060608201518160030190816103649190610952565b50905050826040516103769190610a60565b60405180910390207fc7fc4858662996e8fe091a9941384ab745bfc51199d7c0a5e45a791ff945993c86846040516103af929190610a86565b60405180910390a25050505050565b6000604051905090565b600080fd5b600080fd5b6000819050919050565b6103e5816103d2565b81146103f057600080fd5b50565b600081359050610402816103dc565b92915050565b60006020828403121561041e5761041d6103c8565b5b600061042c848285016103f3565b91505092915050565b600081519050919050565b600082825260208201905092915050565b60005b8381101561046f578082015181840152602081019050610454565b60008484015250505050565b6000601f19601f8301169050919050565b600061049782610435565b6104a18185610440565b93506104b1818560208601610451565b6104ba8161047b565b840191505092915050565b600060808201905081810360008301526104df818761048c565b905081810360208301526104f3818661048c565b90508181036040830152610507818561048c565b9050818103606083015261051b818461048c565b905095945050505050565b600080fd5b600080fd5b7f4e487b7100000000000000000000000000000000000000000000000000000000600052604160045260246000fd5b6105688261047b565b810181811067ffffffffffffffff8211171561058757610586610530565b5b80604052505050565b600061059a6103be565b90506105a6828261055f565b919050565b600067ffffffffffffffff8211156105c6576105c5610530565b5b6105cf8261047b565b9050602081019050919050565b82818337600083830152505050565b60006105fe6105f9846105ab565b610590565b90508281526020810184848401111561061a5761061961052b565b5b6106258482856105dc565b509392505050565b600082601f83011261064257610641610526565b5b81356106528482602086016105eb565b91505092915050565b600080600080600060a08688031215610677576106766103c8565b5b6000610685888289016103f3565b955050602086013567ffffffffffffffff8111156106a6576106a56103cd565b5b6106b28882890161062d565b945050604086013567ffffffffffffffff8111156106d3576106d26103cd565b5b6106df8882890161062d565b935050606086013567ffffffffffffffff811115610700576106ff6103cd565b5b61070c8882890161062d565b925050608086013567ffffffffffffffff81111561072d5761072c6103cd565b5b6107398882890161062d565b9150509295509295909350565b7f4e487b7100000000000000000000000000000000000000000000000000000000600052602260045260246000fd5b6000600282049050600182168061078d57607f821691505b6020821081036107a05761079f610746565b5b50919050565b60008190508160005260206000209050919050565b60006020601f8301049050919050565b600082821b905092915050565b6000600883026108087fffffffffffffffffffffffffffffffffffffffffffffffffffffffffffffffff826107cb565b61081286836107cb565b95508019841693508086168417925050509392505050565b6000819050919050565b600061084f61084a610845846103d2565b61082a565b6103d2565b9050919050565b6000819050919050565b61086983610834565b61087d61087582610856565b8484546107d8565b825550505050565b600090565b610892610885565b61089d818484610860565b505050565b5b818110156108c1576108b660008261088a565b6001810190506108a3565b5050565b601f821115610906576108d7816107a6565b6108e0846107bb565b810160208510156108ef578190505b6109036108fb856107bb565b8301826108a2565b50505b505050565b600082821c905092915050565b60006109296000198460080261090b565b1980831691505092915050565b60006109428383610918565b9150826002028217905092915050565b61095b82610435565b67ffffffffffffffff81111561097457610973610530565b5b61097e8254610775565b6109898282856108c5565b600060209050601f8311600181146109bc57600084156109aa578287015190505b6109b48582610936565b865550610a1c565b601f1984166109ca866107a6565b60005b828110156109f2578489015182556001820191506020850194506020810190506109cd565b86831015610a0f5784890151610a0b601f891682610918565b8355505b6001600288020188555050505b505050505050565b600081905092915050565b6000610a3a82610435565b610a448185610a24565b9350610a54818560208601610451565b80840191505092915050565b6000610a6c8284610a2f565b915081905092915050565b610a80816103d2565b82525050565b6000604082019050610a9b6000830185610a77565b8181036020830152610aad818461048c565b9050939250505056fea264697066735822122091c8c1243193679e744b0b8ebfd1d5f4d73ae3a5741f6e117bc2ed3778e8b50f64736f6c63430008140033",
  "linkReferences": {},
  "deployedLinkReferences": {}
}